{
  "contractName": "CrowdBank",
  "abi": [
    {
      "constant": true,
      "inputs": [
        {
          "name": "borrower",
          "type": "address"
        },
        {
          "name": "pos",
          "type": "uint256"
        }
      ],
      "name": "getLoanDetailsByAddressPosition",
      "outputs": [
        {
          "name": "",
          "type": "uint8"
        },
        {
          "name": "",
          "type": "uint256"
        },
        {
          "name": "",
          "type": "uint256"
        },
        {
          "name": "",
          "type": "uint256"
        },
        {
          "name": "",
          "type": "uint256"
        },
        {
          "name": "",
          "type": "bytes32"
        }
      ],
      "payable": false,
      "stateMutability": "view",
      "type": "function"
    },
    {
      "constant": true,
      "inputs": [
        {
          "name": "loanId",
          "type": "uint256"
        }
      ],
      "name": "getRepayValue",
      "outputs": [
        {
          "name": "",
          "type": "uint256"
        }
      ],
      "payable": false,
      "stateMutability": "view",
      "type": "function"
    },
    {
      "constant": true,
      "inputs": [
        {
          "name": "",
          "type": "address"
        },
        {
          "name": "",
          "type": "uint256"
        }
      ],
      "name": "loanMap",
      "outputs": [
        {
          "name": "",
          "type": "uint256"
        }
      ],
      "payable": false,
      "stateMutability": "view",
      "type": "function"
    },
    {
      "constant": false,
      "inputs": [
        {
          "name": "loanId",
          "type": "uint256"
        },
        {
          "name": "rate",
          "type": "uint256"
        }
      ],
      "name": "newProposal",
      "outputs": [],
      "payable": true,
      "stateMutability": "payable",
      "type": "function"
    },
    {
      "constant": true,
      "inputs": [
        {
          "name": "borrower",
          "type": "address"
        }
      ],
      "name": "hasActiveLoan",
      "outputs": [
        {
          "name": "",
          "type": "bool"
        }
      ],
      "payable": false,
      "stateMutability": "view",
      "type": "function"
    },
    {
      "constant": true,
      "inputs": [
        {
          "name": "lender",
          "type": "address"
        },
        {
          "name": "pos",
          "type": "uint256"
        }
      ],
      "name": "getProposalAtPosFor",
      "outputs": [
        {
          "name": "",
          "type": "address"
        },
        {
          "name": "",
          "type": "uint256"
        },
        {
          "name": "",
          "type": "uint8"
        },
        {
          "name": "",
          "type": "uint256"
        },
        {
          "name": "",
          "type": "uint256"
        },
        {
          "name": "",
          "type": "uint256"
        },
        {
          "name": "",
          "type": "uint256"
        },
        {
          "name": "",
          "type": "bytes32"
        }
      ],
      "payable": false,
      "stateMutability": "view",
      "type": "function"
    },
    {
      "constant": false,
      "inputs": [
        {
          "name": "proposeId",
          "type": "uint256"
        }
      ],
      "name": "acceptProposal",
      "outputs": [],
      "payable": false,
      "stateMutability": "nonpayable",
      "type": "function"
    },
    {
      "constant": true,
      "inputs": [
        {
          "name": "loanId",
          "type": "uint256"
        },
        {
          "name": "numI",
          "type": "uint256"
        }
      ],
      "name": "getProposalDetailsByLoanIdPosition",
      "outputs": [
        {
          "name": "",
          "type": "uint8"
        },
        {
          "name": "",
          "type": "uint256"
        },
        {
          "name": "",
          "type": "uint256"
        },
        {
          "name": "",
          "type": "uint256"
        },
        {
          "name": "",
          "type": "address"
        }
      ],
      "payable": false,
      "stateMutability": "view",
      "type": "function"
    },
    {
      "constant": true,
      "inputs": [
        {
          "name": "",
          "type": "uint256"
        }
      ],
      "name": "loanList",
      "outputs": [
        {
          "name": "borrower",
          "type": "address"
        },
        {
          "name": "state",
          "type": "uint8"
        },
        {
          "name": "dueDate",
          "type": "uint256"
        },
        {
          "name": "amount",
          "type": "uint256"
        },
        {
          "name": "proposalCount",
          "type": "uint256"
        },
        {
          "name": "collected",
          "type": "uint256"
        },
        {
          "name": "startDate",
          "type": "uint256"
        },
        {
          "name": "mortgage",
          "type": "bytes32"
        }
      ],
      "payable": false,
      "stateMutability": "view",
      "type": "function"
    },
    {
      "constant": true,
      "inputs": [
        {
          "name": "borrower",
          "type": "address"
        }
      ],
      "name": "getLastLoanDetails",
      "outputs": [
        {
          "name": "",
          "type": "uint8"
        },
        {
          "name": "",
          "type": "uint256"
        },
        {
          "name": "",
          "type": "uint256"
        },
        {
          "name": "",
          "type": "uint256"
        },
        {
          "name": "",
          "type": "uint256"
        }
      ],
      "payable": false,
      "stateMutability": "view",
      "type": "function"
    },
    {
      "constant": true,
      "inputs": [],
      "name": "numTotalLoans",
      "outputs": [
        {
          "name": "",
          "type": "uint256"
        }
      ],
      "payable": false,
      "stateMutability": "view",
      "type": "function"
    },
    {
      "constant": true,
      "inputs": [],
      "name": "owner",
      "outputs": [
        {
          "name": "",
          "type": "address"
        }
      ],
      "payable": false,
      "stateMutability": "view",
      "type": "function"
    },
    {
      "constant": true,
      "inputs": [
        {
          "name": "borrower",
          "type": "address"
        }
      ],
      "name": "getActiveLoanId",
      "outputs": [
        {
          "name": "",
          "type": "uint256"
        }
      ],
      "payable": false,
      "stateMutability": "view",
      "type": "function"
    },
    {
      "constant": false,
      "inputs": [
        {
          "name": "id",
          "type": "uint256"
        }
      ],
      "name": "revokeMyProposal",
      "outputs": [],
      "payable": false,
      "stateMutability": "nonpayable",
      "type": "function"
    },
    {
      "constant": false,
      "inputs": [
        {
          "name": "loanId",
          "type": "uint256"
        }
      ],
      "name": "lockLoan",
      "outputs": [],
      "payable": false,
      "stateMutability": "nonpayable",
      "type": "function"
    },
    {
      "constant": false,
      "inputs": [
        {
          "name": "loanId",
          "type": "uint256"
        }
      ],
      "name": "repayLoan",
      "outputs": [],
      "payable": true,
      "stateMutability": "payable",
      "type": "function"
    },
    {
      "constant": true,
      "inputs": [
        {
          "name": "lender",
          "type": "address"
        }
      ],
      "name": "totalProposalsBy",
      "outputs": [
        {
          "name": "",
          "type": "uint256"
        }
      ],
      "payable": false,
      "stateMutability": "view",
      "type": "function"
    },
    {
      "constant": true,
      "inputs": [
        {
          "name": "borrower",
          "type": "address"
        }
      ],
      "name": "getLastLoanState",
      "outputs": [
        {
          "name": "",
          "type": "uint8"
        }
      ],
      "payable": false,
      "stateMutability": "view",
      "type": "function"
    },
    {
      "constant": true,
      "inputs": [
        {
          "name": "",
          "type": "uint256"
        }
      ],
      "name": "proposalList",
      "outputs": [
        {
          "name": "lender",
          "type": "address"
        },
        {
          "name": "loanId",
          "type": "uint256"
        },
        {
          "name": "state",
          "type": "uint8"
        },
        {
          "name": "rate",
          "type": "uint256"
        },
        {
          "name": "amount",
          "type": "uint256"
        }
      ],
      "payable": false,
      "stateMutability": "view",
      "type": "function"
    },
    {
      "constant": true,
      "inputs": [
        {
          "name": "borrower",
          "type": "address"
        }
      ],
      "name": "totalLoansBy",
      "outputs": [
        {
          "name": "",
          "type": "uint256"
        }
      ],
      "payable": false,
      "stateMutability": "view",
      "type": "function"
    },
    {
      "constant": true,
      "inputs": [
        {
          "name": "",
          "type": "address"
        },
        {
          "name": "",
          "type": "uint256"
        }
      ],
      "name": "lendMap",
      "outputs": [
        {
          "name": "",
          "type": "uint256"
        }
      ],
      "payable": false,
      "stateMutability": "view",
      "type": "function"
    },
    {
      "constant": false,
      "inputs": [
        {
          "name": "amount",
          "type": "uint256"
        },
        {
          "name": "dueDate",
          "type": "uint256"
        },
        {
          "name": "mortgage",
          "type": "bytes32"
        }
      ],
      "name": "newLoan",
      "outputs": [],
      "payable": false,
      "stateMutability": "nonpayable",
      "type": "function"
    },
    {
      "inputs": [],
      "payable": false,
      "stateMutability": "nonpayable",
      "type": "constructor"
    }
  ],
  "bytecode": "0x6060604052341561000f57600080fd5b336000806101000a81548173ffffffffffffffffffffffffffffffffffffffff021916908373ffffffffffffffffffffffffffffffffffffffff1602179055506125278061005e6000396000f300606060405260043610610128576000357c0100000000000000000000000000000000000000000000000000000000900463ffffffff168063052065df1461012d5780630b278f72146101bc5780631594a313146101f35780631801f00f1461024957806321d4f8db1461026a578063277411d2146102bb57806360c5cc3a1461038457806363e84648146103a75780637621710c1461043d5780638a190636146104e75780638cad507d1461055e5780638da5cb5b1461058757806398325656146105dc5780639ce9cc5614610629578063a180f61b1461064c578063ab7b1c891461066f578063ac51ba9614610687578063bad9e65a146106d4578063c6311e3f1461072f578063e24afbb6146107bc578063faa72d6314610809578063fccd238c1461085f575b600080fd5b341561013857600080fd5b61016d600480803573ffffffffffffffffffffffffffffffffffffffff16906020019091908035906020019091905050610898565b6040518087600381111561017d57fe5b60ff1681526020018681526020018581526020018481526020018381526020018260001916600019168152602001965050505050505060405180910390f35b34156101c757600080fd5b6101dd60048080359060200190919050506109ae565b6040518082815260200191505060405180910390f35b34156101fe57600080fd5b610233600480803573ffffffffffffffffffffffffffffffffffffffff16906020019091908035906020019091905050610b76565b6040518082815260200191505060405180910390f35b6102686004808035906020019091908035906020019091905050610ba7565b005b341561027557600080fd5b6102a1600480803573ffffffffffffffffffffffffffffffffffffffff16906020019091905050610e61565b604051808215151515815260200191505060405180910390f35b34156102c657600080fd5b6102fb600480803573ffffffffffffffffffffffffffffffffffffffff16906020019091908035906020019091905050610ff0565b604051808973ffffffffffffffffffffffffffffffffffffffff1673ffffffffffffffffffffffffffffffffffffffff16815260200188815260200187600281111561034357fe5b60ff16815260200186815260200185815260200184815260200183815260200182600019166000191681526020019850505050505050505060405180910390f35b341561038f57600080fd5b6103a56004808035906020019091905050611147565b005b34156103b257600080fd5b6103d160048080359060200190919080359060200190919050506112a9565b604051808660028111156103e157fe5b60ff1681526020018581526020018481526020018381526020018273ffffffffffffffffffffffffffffffffffffffff1673ffffffffffffffffffffffffffffffffffffffff1681526020019550505050505060405180910390f35b341561044857600080fd5b61045e600480803590602001909190505061138a565b604051808973ffffffffffffffffffffffffffffffffffffffff1673ffffffffffffffffffffffffffffffffffffffff1681526020018860038111156104a057fe5b60ff16815260200187815260200186815260200185815260200184815260200183815260200182600019166000191681526020019850505050505050505060405180910390f35b34156104f257600080fd5b61051e600480803573ffffffffffffffffffffffffffffffffffffffff1690602001909190505061140e565b6040518086600381111561052e57fe5b60ff1681526020018581526020018481526020018381526020018281526020019550505050505060405180910390f35b341561056957600080fd5b610571611512565b6040518082815260200191505060405180910390f35b341561059257600080fd5b61059a61151f565b604051808273ffffffffffffffffffffffffffffffffffffffff1673ffffffffffffffffffffffffffffffffffffffff16815260200191505060405180910390f35b34156105e757600080fd5b610613600480803573ffffffffffffffffffffffffffffffffffffffff16906020019091905050611544565b6040518082815260200191505060405180910390f35b341561063457600080fd5b61064a600480803590602001909190505061166c565b005b341561065757600080fd5b61066d60048080359060200190919050506119ae565b005b6106856004808035906020019091905050611c4f565b005b341561069257600080fd5b6106be600480803573ffffffffffffffffffffffffffffffffffffffff16906020019091905050611f57565b6040518082815260200191505060405180910390f35b34156106df57600080fd5b61070b600480803573ffffffffffffffffffffffffffffffffffffffff16906020019091905050611fa3565b6040518082600381111561071b57fe5b60ff16815260200191505060405180910390f35b341561073a57600080fd5b610750600480803590602001909190505061208e565b604051808673ffffffffffffffffffffffffffffffffffffffff1673ffffffffffffffffffffffffffffffffffffffff16815260200185815260200184600281111561079857fe5b60ff1681526020018381526020018281526020019550505050505060405180910390f35b34156107c757600080fd5b6107f3600480803573ffffffffffffffffffffffffffffffffffffffff16906020019091905050612100565b6040518082815260200191505060405180910390f35b341561081457600080fd5b610849600480803573ffffffffffffffffffffffffffffffffffffffff1690602001909190803590602001909190505061214c565b6040518082815260200191505060405180910390f35b341561086a57600080fd5b61089660048080359060200190919080359060200190919080356000191690602001909190505061217d565b005b60008060008060008060006001600360008b73ffffffffffffffffffffffffffffffffffffffff1673ffffffffffffffffffffffffffffffffffffffff168152602001908152602001600020898154811015156108f157fe5b90600052602060002090015481548110151561090957fe5b906000526020600020906008020190508060000160149054906101000a900460ff16816001015482600201548360040154600360008e73ffffffffffffffffffffffffffffffffffffffff1673ffffffffffffffffffffffffffffffffffffffff1681526020019081526020016000208c81548110151561098657fe5b9060005260206000209001548560060154965096509650965096509650509295509295509295565b6000806000806000806000806000600160038111156109c957fe5b60018b8154811015156109d857fe5b906000526020600020906008020160000160149054906101000a900460ff166003811115610a0257fe5b1415610b5d5760018a815481101515610a1757fe5b906000526020600020906008020160050154975060009650600095505b60018a815481101515610a4357fe5b906000526020600020906008020160030154861015610b555760018a815481101515610a6b57fe5b9060005260206000209060080201600701600087815260200190815260200160002054945060016002811115610a9d57fe5b600286815481101515610aac57fe5b906000526020600020906005020160020160009054906101000a900460ff166002811115610ad657fe5b1415610b4857600285815481101515610aeb57fe5b9060005260206000209060050201600401549350600285815481101515610b0e57fe5b906000526020600020906005020160030154925042915063bbf81e0088830384860202811515610b3a57fe5b049050808701965083870196505b8580600101965050610a34565b869850610b69565b67ffffffffffffffff98505b5050505050505050919050565b600360205281600052604060002081815481101515610b9157fe5b9060005260206000209001600091509150505481565b6000600183815481101515610bb857fe5b906000526020600020906008020160000160009054906101000a900473ffffffffffffffffffffffffffffffffffffffff1673ffffffffffffffffffffffffffffffffffffffff161480610c50575060006003811115610c1457fe5b600183815481101515610c2357fe5b906000526020600020906008020160000160149054906101000a900460ff166003811115610c4d57fe5b14155b15610c5a57610e5d565b60028054806001018281610c6e919061234a565b9160005260206000209060050201600060a0604051908101604052803373ffffffffffffffffffffffffffffffffffffffff16815260200186815260200160006002811115610cb957fe5b815260200185815260200134815250909190915060008201518160000160006101000a81548173ffffffffffffffffffffffffffffffffffffffff021916908373ffffffffffffffffffffffffffffffffffffffff1602179055506020820151816001015560408201518160020160006101000a81548160ff02191690836002811115610d4257fe5b02179055506060820151816003015560808201518160040155505050600460003373ffffffffffffffffffffffffffffffffffffffff1673ffffffffffffffffffffffffffffffffffffffff1681526020019081526020016000208054806001018281610daf919061237c565b9160005260206000209001600060016002805490500390919091505550600182815481101515610ddb57fe5b906000526020600020906008020160030160008154809291906001019190505550600160028054905003600183815481101515610e1457fe5b9060005260206000209060080201600701600060018086815481101515610e3757fe5b906000526020600020906008020160030154038152602001908152602001600020819055505b5050565b6000806000600360008573ffffffffffffffffffffffffffffffffffffffff1673ffffffffffffffffffffffffffffffffffffffff1681526020019081526020016000208054905091506000821415610ebd5760009250610fe9565b6001600360008673ffffffffffffffffffffffffffffffffffffffff1673ffffffffffffffffffffffffffffffffffffffff16815260200190815260200160002060018403815481101515610f0e57fe5b906000526020600020900154815481101515610f2657fe5b9060005260206000209060080201905060006003811115610f4357fe5b6001808403815481101515610f5457fe5b906000526020600020906008020160000160149054906101000a900460ff166003811115610f7e57fe5b1415610f8d5760019250610fe9565b60016003811115610f9a57fe5b6001808403815481101515610fab57fe5b906000526020600020906008020160000160149054906101000a900460ff166003811115610fd557fe5b1415610fe45760019250610fe9565b600092505b5050919050565b60008060008060008060008060006002600460008d73ffffffffffffffffffffffffffffffffffffffff1673ffffffffffffffffffffffffffffffffffffffff1681526020019081526020016000208b81548110151561104c57fe5b90600052602060002090015481548110151561106457fe5b906000526020600020906005020190508060000160009054906101000a900473ffffffffffffffffffffffffffffffffffffffff1681600101548260020160009054906101000a900460ff1683600301548460040154600186600101548154811015156110cd57fe5b906000526020600020906008020160020154600187600101548154811015156110f257fe5b9060005260206000209060080201600101546001886001015481548110151561111757fe5b90600052602060002090600802016006015498509850985098509850985098509850509295985092959890939650565b600080600061115533611544565b925067ffffffffffffffff83141561116c576112a3565b60028481548110151561117b57fe5b906000526020600020906005020191506000600281111561119857fe5b8260020160009054906101000a900460ff1660028111156111b557fe5b1415156111c1576112a3565b6001838154811015156111d057fe5b90600052602060002090600802019050600060038111156111ed57fe5b8160000160149054906101000a900460ff16600381111561120a57fe5b141515611216576112a3565b806002015482600401548260040154011115156112a257816004015460018481548110151561124157fe5b906000526020600020906008020160040160008282540192505081905550600160028581548110151561127057fe5b906000526020600020906005020160020160006101000a81548160ff0219169083600281111561129c57fe5b02179055505b5b50505050565b60008060008060008060026001898154811015156112c357fe5b90600052602060002090600802016007016000898152602001908152602001600020548154811015156112f257fe5b906000526020600020906005020190508060020160009054906101000a900460ff168160030154826004015460018b81548110151561132d57fe5b906000526020600020906008020160070160008b8152602001908152602001600020548460000160009054906101000a900473ffffffffffffffffffffffffffffffffffffffff1695509550955095509550509295509295909350565b60018181548110151561139957fe5b90600052602060002090600802016000915090508060000160009054906101000a900473ffffffffffffffffffffffffffffffffffffffff16908060000160149054906101000a900460ff16908060010154908060020154908060030154908060040154908060050154908060060154905088565b6000806000806000806000600360008973ffffffffffffffffffffffffffffffffffffffff1673ffffffffffffffffffffffffffffffffffffffff1681526020019081526020016000208054905091506001600360008a73ffffffffffffffffffffffffffffffffffffffff1673ffffffffffffffffffffffffffffffffffffffff168152602001908152602001600020600184038154811015156114af57fe5b9060005260206000209001548154811015156114c757fe5b906000526020600020906008020190508060000160149054906101000a900460ff16816001015482600201548360030154846004015496509650965096509650505091939590929450565b6000600180549050905090565b6000809054906101000a900473ffffffffffffffffffffffffffffffffffffffff1681565b6000806000600360008573ffffffffffffffffffffffffffffffffffffffff1673ffffffffffffffffffffffffffffffffffffffff16815260200190815260200160002080549050915060008214156115a75767ffffffffffffffff9250611665565b600360008573ffffffffffffffffffffffffffffffffffffffff1673ffffffffffffffffffffffffffffffffffffffff168152602001908152602001600020600183038154811015156115f657fe5b90600052602060002090015490506000600381111561161157fe5b60018281548110151561162057fe5b906000526020600020906008020160000160149054906101000a900460ff16600381111561164a57fe5b1415156116615767ffffffffffffffff9250611665565b8092505b5050919050565b600080600080600460003373ffffffffffffffffffffffffffffffffffffffff1673ffffffffffffffffffffffffffffffffffffffff168152602001908152602001600020858154811015156116be57fe5b9060005260206000209001549350600060028111156116d957fe5b6002858154811015156116e857fe5b906000526020600020906005020160020160009054906101000a900460ff16600281111561171257fe5b14151561171e576119a7565b60028481548110151561172d57fe5b90600052602060002090600502016001015492506000600381111561174e57fe5b60018481548110151561175d57fe5b906000526020600020906008020160000160149054906101000a900460ff16600381111561178757fe5b1415611833576002808581548110151561179d57fe5b906000526020600020906005020160020160006101000a81548160ff021916908360028111156117c957fe5b02179055503373ffffffffffffffffffffffffffffffffffffffff166108fc6002868154811015156117f757fe5b9060005260206000209060050201600401549081150290604051600060405180830381858888f19350505050151561182e57600080fd5b6119a6565b6001600381111561184057fe5b60018481548110151561184f57fe5b906000526020600020906008020160000160149054906101000a900460ff16600381111561187957fe5b14156119a5574260018481548110151561188f57fe5b90600052602060002090600802016001015410156118ac576119a7565b60036001848154811015156118bd57fe5b906000526020600020906008020160000160146101000a81548160ff021916908360038111156118e957fe5b0217905550600091505b60018381548110151561190257fe5b9060005260206000209060080201600301548210156119a45760018381548110151561192a57fe5b906000526020600020906008020160070160008381526020019081526020016000205490506001600281111561195c57fe5b60028281548110151561196b57fe5b906000526020600020906005020160020160009054906101000a900460ff16600281111561199557fe5b505081806001019250506118f3565b5b5b5b5050505050565b600080600060038111156119be57fe5b6001848154811015156119cd57fe5b906000526020600020906008020160000160149054906101000a900460ff1660038111156119f757fe5b1415611c445760018084815481101515611a0d57fe5b906000526020600020906008020160000160146101000a81548160ff02191690836003811115611a3957fe5b0217905550600091505b600183815481101515611a5257fe5b906000526020600020906008020160030154821015611c3f57600183815481101515611a7a57fe5b9060005260206000209060080201600701600083815260200190815260200160002054905060016002811115611aac57fe5b600282815481101515611abb57fe5b906000526020600020906005020160020160009054906101000a900460ff166002811115611ae557fe5b1415611b50573373ffffffffffffffffffffffffffffffffffffffff166108fc600283815481101515611b1457fe5b9060005260206000209060050201600401549081150290604051600060405180830381858888f193505050501515611b4b57600080fd5b611c32565b60028082815481101515611b6057fe5b906000526020600020906005020160020160006101000a81548160ff02191690836002811115611b8c57fe5b0217905550600281815481101515611ba057fe5b906000526020600020906005020160000160009054906101000a900473ffffffffffffffffffffffffffffffffffffffff1673ffffffffffffffffffffffffffffffffffffffff166108fc600283815481101515611bfa57fe5b9060005260206000209060050201600401549081150290604051600060405180830381858888f193505050501515611c3157600080fd5b5b8180600101925050611a43565b611c49565b611c4a565b5b505050565b6000806000806000806000806000806000429a50611c6c8c6109ae565b995060018c815481101515611c7d57fe5b90600052602060002090600802016005015498503497508988101515611f08578988039650600260018d815481101515611cb357fe5b906000526020600020906008020160000160146101000a81548160ff02191690836003811115611cdf57fe5b0217905550600095505b60018c815481101515611cf857fe5b906000526020600020906008020160030154861015611ec35760018c815481101515611d2057fe5b9060005260206000209060080201600701600087815260200190815260200160002054945060016002811115611d5257fe5b600286815481101515611d6157fe5b906000526020600020906005020160020160009054906101000a900460ff166002811115611d8b57fe5b1415611eb657600285815481101515611da057fe5b9060005260206000209060050201600401549350600285815481101515611dc357fe5b906000526020600020906005020160030154925063bbf81e00898c0384860202811515611dec57fe5b0491508382019050600285815481101515611e0357fe5b906000526020600020906005020160000160009054906101000a900473ffffffffffffffffffffffffffffffffffffffff1673ffffffffffffffffffffffffffffffffffffffff166108fc829081150290604051600060405180830381858888f193505050501515611e7457600080fd5b60028086815481101515611e8457fe5b906000526020600020906005020160020160006101000a81548160ff02191690836002811115611eb057fe5b02179055505b8580600101965050611ce9565b3373ffffffffffffffffffffffffffffffffffffffff166108fc889081150290604051600060405180830381858888f193505050501515611f0357600080fd5b611f49565b3373ffffffffffffffffffffffffffffffffffffffff166108fc899081150290604051600060405180830381858888f193505050501515611f4857600080fd5b5b505050505050505050505050565b6000600460008373ffffffffffffffffffffffffffffffffffffffff1673ffffffffffffffffffffffffffffffffffffffff168152602001908152602001600020805490509050919050565b600080600360008473ffffffffffffffffffffffffffffffffffffffff1673ffffffffffffffffffffffffffffffffffffffff1681526020019081526020016000208054905090506000811415611ffd5760029150612088565b6001600360008573ffffffffffffffffffffffffffffffffffffffff1673ffffffffffffffffffffffffffffffffffffffff1681526020019081526020016000206001830381548110151561204e57fe5b90600052602060002090015481548110151561206657fe5b906000526020600020906008020160000160149054906101000a900460ff1691505b50919050565b60028181548110151561209d57fe5b90600052602060002090600502016000915090508060000160009054906101000a900473ffffffffffffffffffffffffffffffffffffffff16908060010154908060020160009054906101000a900460ff16908060030154908060040154905085565b6000600360008373ffffffffffffffffffffffffffffffffffffffff1673ffffffffffffffffffffffffffffffffffffffff168152602001908152602001600020805490509050919050565b60046020528160005260406000208181548110151561216757fe5b9060005260206000209001600091509150505481565b600061218833610e61565b1561219257612344565b429050600180548060010182816121a991906123a8565b91600052602060002090600802016000610100604051908101604052803373ffffffffffffffffffffffffffffffffffffffff168152602001600060038111156121ef57fe5b815260200187815260200188815260200160008152602001600081526020018581526020018660001916815250909190915060008201518160000160006101000a81548173ffffffffffffffffffffffffffffffffffffffff021916908373ffffffffffffffffffffffffffffffffffffffff16021790555060208201518160000160146101000a81548160ff0219169083600381111561228c57fe5b021790555060408201518160010155606082015181600201556080820151816003015560a0820151816004015560c0820151816005015560e08201518160060190600019169055505050600360003373ffffffffffffffffffffffffffffffffffffffff1673ffffffffffffffffffffffffffffffffffffffff1681526020019081526020016000208054806001018281612327919061237c565b916000526020600020900160006001808054905003909190915055505b50505050565b8154818355818115116123775760050281600502836000526020600020918201910161237691906123da565b5b505050565b8154818355818115116123a3578183600052602060002091820191016123a2919061244c565b5b505050565b8154818355818115116123d5576008028160080283600052602060002091820191016123d49190612471565b5b505050565b61244991905b8082111561244557600080820160006101000a81549073ffffffffffffffffffffffffffffffffffffffff021916905560018201600090556002820160006101000a81549060ff021916905560038201600090556004820160009055506005016123e0565b5090565b90565b61246e91905b8082111561246a576000816000905550600101612452565b5090565b90565b6124f891905b808211156124f457600080820160006101000a81549073ffffffffffffffffffffffffffffffffffffffff02191690556000820160146101000a81549060ff021916905560018201600090556002820160009055600382016000905560048201600090556005820160009055600682016000905550600801612477565b5090565b905600a165627a7a7230582083f81fd647c4d560bf62b729ca047980692e5012a6cd0633fb91348309cd356f0029",
  "source": "pragma solidity ^0.4.4;\ncontract CrowdBank {\n    \n    address public owner;\n    \n    enum ProposalState {\n        WAITING,\n        ACCEPTED,\n        REPAID\n    }\n\n    struct Proposal {\n        address lender;\n        uint loanId;\n        ProposalState state;\n        uint rate;\n        uint amount;\n    }\n    \n    enum LoanState {\n        ACCEPTING,\n        LOCKED,\n        SUCCESSFUL,\n        FAILED\n    }\n    \n    struct Loan {\n        address borrower;\n        LoanState state;\n        uint dueDate;\n        uint amount;\n        uint proposalCount;\n        uint collected;\n        uint startDate;\n        bytes32 mortgage;\n        mapping (uint=>uint) proposal;\n    }\n\n    Loan[] public loanList;\n    Proposal[] public proposalList;\n\n    mapping (address=>uint[]) public loanMap;\n    mapping (address=>uint[]) public lendMap;\n\n    function CrowdBank() {\n        owner = msg.sender;\n    }\n\n    function hasActiveLoan(address borrower) constant returns(bool) {\n        uint validLoans = loanMap[borrower].length;\n        if(validLoans == 0) return false;\n        Loan obj = loanList[loanMap[borrower][validLoans-1]];\n        if(loanList[validLoans-1].state == LoanState.ACCEPTING) return true;\n        if(loanList[validLoans-1].state == LoanState.LOCKED) return true;\n        return false;\n    }\n    \n    function newLoan(uint amount, uint dueDate, bytes32 mortgage) {\n        if(hasActiveLoan(msg.sender)) return;\n        uint currentDate = block.timestamp;\n        loanList.push(Loan(msg.sender, LoanState.ACCEPTING, dueDate, amount, 0, 0, currentDate, mortgage));\n        loanMap[msg.sender].push(loanList.length-1);\n    }\n\n    function newProposal(uint loanId, uint rate) payable {\n        if(loanList[loanId].borrower == 0 || loanList[loanId].state != LoanState.ACCEPTING)\n            return;\n        proposalList.push(Proposal(msg.sender, loanId, ProposalState.WAITING, rate, msg.value));\n        lendMap[msg.sender].push(proposalList.length-1);\n        loanList[loanId].proposalCount++;\n        loanList[loanId].proposal[loanList[loanId].proposalCount-1] = proposalList.length-1;\n    }\n\n    function getActiveLoanId(address borrower) constant returns(uint) {\n        uint numLoans = loanMap[borrower].length;\n        if(numLoans == 0) return (2**64 - 1);\n        uint lastLoanId = loanMap[borrower][numLoans-1];\n        if(loanList[lastLoanId].state != LoanState.ACCEPTING) return (2**64 - 1);\n        return lastLoanId;\n    }\n\n    function revokeMyProposal(uint id) {        \n        uint proposeId = lendMap[msg.sender][id];\n        if(proposalList[proposeId].state != ProposalState.WAITING) return;\n        uint loanId = proposalList[proposeId].loanId;\n        if(loanList[loanId].state == LoanState.ACCEPTING) {\n            // Lender wishes to revoke his ETH when proposal is still WAITING\n            proposalList[proposeId].state = ProposalState.REPAID;\n            msg.sender.transfer(proposalList[proposeId].amount);\n        }\n        else if(loanList[loanId].state == LoanState.LOCKED) {\n            // The loan is locked/accepting and the due date passed : transfer the mortgage\n            if(loanList[loanId].dueDate < now) return;\n            loanList[loanId].state = LoanState.FAILED;\n            for(uint i = 0; i < loanList[loanId].proposalCount; i++) {\n                uint numI = loanList[loanId].proposal[i];\n                if(proposalList[numI].state == ProposalState.ACCEPTED) {\n                    // transfer mortgage \n                }\n            } \n        }\n    }\n\n    function lockLoan(uint loanId) {\n        //contract will send money to msg.sender\n        //states of proposals would be finalized, not accepted proposals would be reimbursed\n        if(loanList[loanId].state == LoanState.ACCEPTING)\n        {\n          loanList[loanId].state = LoanState.LOCKED;\n          for(uint i = 0; i < loanList[loanId].proposalCount; i++)\n          {\n            uint numI = loanList[loanId].proposal[i];\n            if(proposalList[numI].state == ProposalState.ACCEPTED)\n            {\n              msg.sender.transfer(proposalList[numI].amount); //Send to borrower\n            }\n            else\n            {\n              proposalList[numI].state = ProposalState.REPAID;\n              proposalList[numI].lender.transfer(proposalList[numI].amount); //Send back to lender\n            }\n          }\n        }\n        else\n          return;\n    }\n    \n    //Amount to be Repaid\n    function getRepayValue(uint loanId) constant returns(uint) {\n        if(loanList[loanId].state == LoanState.LOCKED)\n        {\n          uint time = loanList[loanId].startDate;\n          uint finalamount = 0;\n          for(uint i = 0; i < loanList[loanId].proposalCount; i++)\n          {\n            uint numI = loanList[loanId].proposal[i];\n            if(proposalList[numI].state == ProposalState.ACCEPTED)\n            {\n              uint original = proposalList[numI].amount;\n              uint rate = proposalList[numI].rate;\n              uint now = block.timestamp;\n              uint interest = (original*rate*(now - time))/(365*24*60*60*100);\n              finalamount += interest;\n              finalamount += original;\n            }\n          }\n          return finalamount;\n        }\n        else\n          return (2**64 -1);\n    }\n\n    function repayLoan(uint loanId) payable {\n      uint now = block.timestamp;\n      uint toBePaid = getRepayValue(loanId);\n      uint time = loanList[loanId].startDate;\n      uint paid = msg.value;\n      if(paid >= toBePaid)\n      {\n        uint remain = paid - toBePaid;\n        loanList[loanId].state = LoanState.SUCCESSFUL;\n        for(uint i = 0; i < loanList[loanId].proposalCount; i++)\n        {\n          uint numI = loanList[loanId].proposal[i];\n          if(proposalList[numI].state == ProposalState.ACCEPTED)\n          {\n            uint original = proposalList[numI].amount;\n            uint rate = proposalList[numI].rate;\n            uint interest = (original*rate*(now - time))/(365*24*60*60*100);\n            uint finalamount = interest + original;\n            proposalList[numI].lender.transfer(finalamount);\n            proposalList[numI].state = ProposalState.REPAID;\n          }\n        }\n        msg.sender.transfer(remain);\n      }\n      else\n      {\n        msg.sender.transfer(paid);\n      }\n    }\n    \n    function acceptProposal(uint proposeId)\n    {\n        uint loanId = getActiveLoanId(msg.sender); \n        if(loanId == (2**64 - 1)) return;\n        Proposal pObj = proposalList[proposeId];\n        if(pObj.state != ProposalState.WAITING) return;\n\n        Loan lObj = loanList[loanId];\n        if(lObj.state != LoanState.ACCEPTING) return;\n\n        if(lObj.collected + pObj.amount <= lObj.amount)\n        {\n          loanList[loanId].collected += pObj.amount;\n          proposalList[proposeId].state = ProposalState.ACCEPTED;\n        }\n    }\n\n    function totalProposalsBy(address lender) constant returns(uint) {\n        return lendMap[lender].length;\n    }\n\n    function getProposalAtPosFor(address lender, uint pos) constant returns(address, uint, ProposalState, uint, uint, uint, uint, bytes32) {\n        Proposal prop = proposalList[lendMap[lender][pos]];\n        return (prop.lender, prop.loanId, prop.state, prop.rate, prop.amount, loanList[prop.loanId].amount, loanList[prop.loanId].dueDate, loanList[prop.loanId].mortgage);\n    }\n\n// BORROWER ACTIONS AVAILABLE    \n\n    function totalLoansBy(address borrower) constant returns(uint) {\n        return loanMap[borrower].length;\n    }\n\n    function getLoanDetailsByAddressPosition(address borrower, uint pos) constant returns(LoanState, uint, uint, uint, uint,bytes32) {\n        Loan obj = loanList[loanMap[borrower][pos]];\n        return (obj.state, obj.dueDate, obj.amount, obj.collected, loanMap[borrower][pos], obj.mortgage);\n    }\n\n    function getLastLoanState(address borrower) constant returns(LoanState) {\n        uint loanLength = loanMap[borrower].length;\n        if(loanLength == 0)\n            return LoanState.SUCCESSFUL;\n        return loanList[loanMap[borrower][loanLength -1]].state;\n    }\n\n    function getLastLoanDetails(address borrower) constant returns(LoanState, uint, uint, uint, uint) {\n        uint loanLength = loanMap[borrower].length;\n        Loan obj = loanList[loanMap[borrower][loanLength -1]];\n        return (obj.state, obj.dueDate, obj.amount, obj.proposalCount, obj.collected);\n    }\n\n    function getProposalDetailsByLoanIdPosition(uint loanId, uint numI) constant returns(ProposalState, uint, uint, uint, address) {\n        Proposal obj = proposalList[loanList[loanId].proposal[numI]];\n        return (obj.state, obj.rate, obj.amount, loanList[loanId].proposal[numI],obj.lender);\n    }\n\n    function numTotalLoans() constant returns(uint) {\n        return loanList.length;\n    }\n    \n}",
  "sourcePath": "/home/user/Desktop/loantest/CrowdBank/contracts/CrowdBank.sol",
  "compiler": {
    "name": "solc",
    "version": "0.4.18+commit.9cf6e910.Emscripten.clang"
  },
  "schemaVersion": "1.0.1",
  "updatedAt": "2018-01-28T16:14:48.094Z"
}