{
  "contractName": "Mortgage",
  "abi": [
    {
      "constant": true,
      "inputs": [
        {
          "name": "person",
          "type": "address"
        }
      ],
      "name": "getMortgageCount",
      "outputs": [
        {
          "name": "",
          "type": "uint256"
        }
      ],
      "payable": false,
      "stateMutability": "view",
      "type": "function"
    },
    {
      "constant": false,
      "inputs": [
        {
          "name": "document",
          "type": "bytes32"
        }
      ],
      "name": "addData",
      "outputs": [],
      "payable": false,
      "stateMutability": "nonpayable",
      "type": "function"
    },
    {
      "constant": true,
      "inputs": [
        {
          "name": "",
          "type": "address"
        },
        {
          "name": "",
          "type": "uint256"
        }
      ],
      "name": "mortgageMap",
      "outputs": [
        {
          "name": "",
          "type": "bytes32"
        }
      ],
      "payable": false,
      "stateMutability": "view",
      "type": "function"
    },
    {
      "constant": true,
      "inputs": [
        {
          "name": "hash",
          "type": "bytes32"
        },
        {
          "name": "index",
          "type": "uint256"
        }
      ],
      "name": "getOwnerByPosition",
      "outputs": [
        {
          "name": "",
          "type": "address"
        }
      ],
      "payable": false,
      "stateMutability": "view",
      "type": "function"
    },
    {
      "constant": true,
      "inputs": [],
      "name": "owner",
      "outputs": [
        {
          "name": "",
          "type": "address"
        }
      ],
      "payable": false,
      "stateMutability": "view",
      "type": "function"
    },
    {
      "constant": true,
      "inputs": [
        {
          "name": "",
          "type": "bytes32"
        },
        {
          "name": "",
          "type": "uint256"
        }
      ],
      "name": "ownerMap",
      "outputs": [
        {
          "name": "",
          "type": "address"
        }
      ],
      "payable": false,
      "stateMutability": "view",
      "type": "function"
    },
    {
      "constant": true,
      "inputs": [
        {
          "name": "hash",
          "type": "bytes32"
        }
      ],
      "name": "getOwnerCount",
      "outputs": [
        {
          "name": "",
          "type": "uint256"
        }
      ],
      "payable": false,
      "stateMutability": "view",
      "type": "function"
    },
    {
      "inputs": [],
      "payable": false,
      "stateMutability": "nonpayable",
      "type": "constructor"
    }
  ],
  "bytecode": "0x6060604052341561000f57600080fd5b336000806101000a81548173ffffffffffffffffffffffffffffffffffffffff021916908373ffffffffffffffffffffffffffffffffffffffff16021790555061077a8061005e6000396000f300606060405260043610610083576000357c0100000000000000000000000000000000000000000000000000000000900463ffffffff16806327cfca811461008857806328af94c8146100d557806334646a58146100fc57806337f51b421461015a5780638da5cb5b146101ca5780638fde4dcf1461021f578063f258d1831461028f575b600080fd5b341561009357600080fd5b6100bf600480803573ffffffffffffffffffffffffffffffffffffffff169060200190919050506102ca565b6040518082815260200191505060405180910390f35b34156100e057600080fd5b6100fa600480803560001916906020019091905050610316565b005b341561010757600080fd5b61013c600480803573ffffffffffffffffffffffffffffffffffffffff16906020019091908035906020019091905050610582565b60405180826000191660001916815260200191505060405180910390f35b341561016557600080fd5b6101886004808035600019169060200190919080359060200190919050506105b3565b604051808273ffffffffffffffffffffffffffffffffffffffff1673ffffffffffffffffffffffffffffffffffffffff16815260200191505060405180910390f35b34156101d557600080fd5b6101dd610611565b604051808273ffffffffffffffffffffffffffffffffffffffff1673ffffffffffffffffffffffffffffffffffffffff16815260200191505060405180910390f35b341561022a57600080fd5b61024d600480803560001916906020019091908035906020019091905050610636565b604051808273ffffffffffffffffffffffffffffffffffffffff1673ffffffffffffffffffffffffffffffffffffffff16815260200191505060405180910390f35b341561029a57600080fd5b6102b4600480803560001916906020019091905050610684565b6040518082815260200191505060405180910390f35b6000600260008373ffffffffffffffffffffffffffffffffffffffff1673ffffffffffffffffffffffffffffffffffffffff168152602001908152602001600020805490509050919050565b60008060006001600085600019166000191681526020019081526020016000209250600091505b82805490508210156103c8573373ffffffffffffffffffffffffffffffffffffffff16838381548110151561036e57fe5b906000526020600020900160009054906101000a900473ffffffffffffffffffffffffffffffffffffffff1673ffffffffffffffffffffffffffffffffffffffff1614156103bb5761057c565b818060010192505061033d565b60016000856000191660001916815260200190815260200160002080548060010182816103f591906106ac565b9160005260206000209001600033909190916101000a81548173ffffffffffffffffffffffffffffffffffffffff021916908373ffffffffffffffffffffffffffffffffffffffff16021790555050600260003373ffffffffffffffffffffffffffffffffffffffff1673ffffffffffffffffffffffffffffffffffffffff168152602001908152602001600020805490509050600091505b8082101561050f578360001916600260003373ffffffffffffffffffffffffffffffffffffffff1673ffffffffffffffffffffffffffffffffffffffff168152602001908152602001600020838154811015156104e757fe5b9060005260206000209001546000191614156105025761057c565b818060010192505061048e565b600260003373ffffffffffffffffffffffffffffffffffffffff1673ffffffffffffffffffffffffffffffffffffffff168152602001908152602001600020805480600101828161056091906106d8565b9160005260206000209001600086909190915090600019169055505b50505050565b60026020528160005260406000208181548110151561059d57fe5b9060005260206000209001600091509150505481565b6000600160008460001916600019168152602001908152602001600020828154811015156105dd57fe5b906000526020600020900160009054906101000a900473ffffffffffffffffffffffffffffffffffffffff16905092915050565b6000809054906101000a900473ffffffffffffffffffffffffffffffffffffffff1681565b60016020528160005260406000208181548110151561065157fe5b90600052602060002090016000915091509054906101000a900473ffffffffffffffffffffffffffffffffffffffff1681565b6000600160008360001916600019168152602001908152602001600020805490509050919050565b8154818355818115116106d3578183600052602060002091820191016106d29190610704565b5b505050565b8154818355818115116106ff578183600052602060002091820191016106fe9190610729565b5b505050565b61072691905b8082111561072257600081600090555060010161070a565b5090565b90565b61074b91905b8082111561074757600081600090555060010161072f565b5090565b905600a165627a7a723058203af9d17197695bc27f5f1f957d543e45593150f7a4b21c27edd0b613913ff50d0029",
  "source": "pragma solidity ^0.4.4;\ncontract Mortgage {\n    \n  address public owner;\n\n  mapping (bytes32=>address[]) public ownerMap;\n  mapping (address=>bytes32[]) public mortgageMap;\n\n  function Mortgage() {\n      owner = msg.sender;\n  }\n  \n  function addData(bytes32 document) {\n    address[] owners = ownerMap[document];\n    uint i;\n    for(i=0;i<owners.length; i++)\n    {\n      if(owners[i] == msg.sender)\n        return;\n    }\n    ownerMap[document].push(msg.sender);\n    uint count = mortgageMap[msg.sender].length;\n    for(i=0;i<count; i++)\n    {\n      if(mortgageMap[msg.sender][i] == document)\n        return;\n    }\n    mortgageMap[msg.sender].push(document);\n  }\n\n  function getMortgageCount(address person) constant returns(uint) {\n    return mortgageMap[person].length;\n  }\n\n  function getOwnerCount(bytes32 hash) constant returns(uint) {\n    return ownerMap[hash].length;\n  }\n  \n  function getOwnerByPosition(bytes32 hash,uint index) constant returns(address) {\n    return ownerMap[hash][index];\n  }\n  \n  \n}",
  "sourcePath": "/home/user/Desktop/loantest/CrowdBank/contracts/Mortgage.sol",
  "compiler": {
    "name": "solc",
    "version": "0.4.18+commit.9cf6e910.Emscripten.clang"
  },
  "schemaVersion": "1.0.1",
  "updatedAt": "2018-01-28T16:14:48.166Z"
}